:020000040800F2
:10000000D034002001010008090100080B0100089C
:100010000D0100080F010008110100080000000098
:1000200000000000000000000000000013010008B4
:100030001501000800000000170100081901000860
:100040001B0100081B0100081B0100081B01000820
:100050001B0100081B010008AD0B00081B01000874
:100060001B0100081B0100081B0100081B01000800
:100070001B0100081B0100081B0100081B010008F0
:100080001B0100081B0100081B0100081B010008E0
:100090001B0100081B0100081B010008E10B000800
:1000A0001B0100081B0100081B0100081B010008C0
:1000B0001B0100081B010008751900081B0100083E
:1000C0001B0100081B0100081B0100081B010008A0
:1000D0001B0100081B0100081B0100081B01000890
:1000E0001B0100081B0100081B010008DFF80CD0F1
:1000F00000F000FD00480047DD3D0008D03400203E
:100100000648804706480047FEE7FEE7FEE7FEE7B1
:10011000FEE7FEE7FEE7FEE7FEE7FEE74918000818
:10012000ED0000082DE9F05F0546002092469B4651
:1001300088460646814640241BE0284641464746FD
:10014000224600F000FB53465A46C01A914110D394
:1001500011461846224600F0E7FA2D1A67EB01080F
:100160004F4622460120002100F0DEFA17EB00097D
:100170004E41201EA4F10104DFDC484631462A46E8
:100180004346BDE8F09F2DE9F0410024061B2546BB
:1001900071F1000605DA01240027D0EB070067EBB8
:1001A0000101161E73F1000605DA0027D2EB0702E3
:1001B000012567EB0303FFF7B5FF86460E4617469A
:1001C0009C46AC4204D00025D0EB050E65EB010641
:1001D00024B10020D2EB000760EB030C70463146DF
:1001E0003A466346BDE8F08140EA01039B0703D02D
:1001F00009E008C9121F08C0042AFAD203E011F866
:10020000013B00F8013B521EF9D27047D2B201E027
:1002100000F8012B491EFBD270470022F6E710B50B
:1002200013460A4604461946FFF7F0FF204610BD64
:1002300030B504460020034600E05B1C934203D225
:10024000E05CCD5C401BF8D030BDF0B480EA010228
:10025000D40F4200B2EB410F02D2024608461146CB
:100260004A0042D0C30DDDB2C1F3C752AD1A202DF2
:1002700035DAC1F3160141F4000204B15242C5F16E
:10028000200602FA06F12A411044B3EBD05F23D0D6
:10029000C4B1012DA0EBC35009DCF0BC4FF000420B
:1002A00002EAC352DBB200F5000000F065BA40007C
:1002B00000F1807000EBC350A0F1807040EAD17073
:1002C000490009E0490841EAC071A0EBC35000F5BC
:1002D0000000400800EBC350F0BC00F044BA61429B
:1002E000012202EB4101001BF6E7F0BC704781F0F0
:1002F0000041AAE780F00040A7E780EA010210B5BC
:1003000002F00043400022D04A001FD0010E01EB52
:100310001261C0F35600C2F3560240F4000042F4EA
:100320000002A0FB022000047F39140400D0401C0E
:1003300050EA124001D44000491EC2B20C0604EB40
:10034000D010401C4008802A02D003E0002010BDDD
:1003500020F00100002900DA0020184310BD30B45D
:1003600080EA010202F0004530F0004221F0004036
:1003700013D090B1C30DD40DC2F31601C0F3160013
:10038000E41A41F4000140F400027D34914201D3AB
:10039000641C00E04900002C02DA30BC00207047E9
:1003A0004FF400000023914201D3891A034340080F
:1003B0004FEA4101F7D151B1914202D14FF00041D2
:1003C00005E002D24FF0010101E06FF0010103EB03
:1003D000C450284430BC00F0C6B92DE9FE4F81EA74
:1003E000030404F0004421F0004100944FF0000B9E
:1003F00023F0004350EA01045ED052EA03045BD0CC
:10040000C3F30A54C1F30A552C44A4F2F334019403
:10041000A0FB0254C1F3130141F48011C3F3130391
:1004200043F4801301FB024400FB034E840A970A45
:1004300044EA815447EA8357A4FB076802958D0A72
:1004400005FB07854FEA932C04FB0C542705029DFE
:100450004FEA065847EA1637B5EB08056EEB070C6E
:10046000870E920E47EA811742EA8312A7FB020128
:10047000B6EB0B0164EB00042B0D43EA0C335E1862
:1004800044EB1C50DA465146E7FB0201C5F3130466
:100490004FEA0B3343EA14534FEA0432019C43EA18
:1004A0000603A4F10C040294009CCDE900B400F012
:1004B000A0F903B0BDE8F08F00200146F9E72DE96F
:1004C000F04D81EA030404F0004B21F0004514468E
:1004D0004FF0000A23F0004150EA050220D054EA10
:1004E00001021DD0C5F30A570246C5F31303C1F339
:1004F0001300C1F30A5640F4801543F48013A7EBB0
:100500000608101BD64608F2FD3873EB050002D32F
:1005100008F1010801E092185B41B8F1000F03DA1D
:1005200000200146BDE8F08D00204FF48011064602
:1005300084460EE0171B73EB050705D3121B63EB14
:10054000050306434CEA010C49084FEA30009218B3
:100550005B4150EA0107EDD152EA030012D082EA72
:10056000040083EA0501084305D0101BAB4106D205
:100570000122002306E000224FF0004302E06FF06A
:10058000010253101AEB06004CEB085110EB0A0065
:1005900041EB0B01BDE8F04D00F01CB9002801DB78
:1005A000C0F10040002901DBC1F10041814201D8C6
:1005B0000120704700207047002801DBC0F1004097
:1005C000002901DBC1F10041814201D201207047C5
:1005D00000207047002801DBC0F10040002901DB4A
:1005E000C1F10041814201D10120704700207047D4
:1005F000C10F80EAE0700844CA079623002100F08A
:10060000BBB896230022114600F0B6B80EB5C10F54
:1006100080EAE0700844CA07002140F233438DE8C5
:100620000E000A460B4600F0E4F803B000BD00F0EF
:10063000004220F00040C10DC0F3160040F400005D
:100640007F2901DA00207047962903DCC1F1960169
:10065000C84001E096398840002AF4D040427047F3
:1006600070B5C1F30A5201F000450024C1F3130133
:1006700040F2FF3341F480119A4201DA002070BD4C
:1006800040F233439A42A2F2334203DC524200F07A
:100690005AF800E090402C43F1D0404270BD00F089
:1006A000004230F000400AD0C10D01F56071C0F386
:1006B000160042EA0151C20840071143704700206A
:1006C0000146704701F0004330B421F0004150EA88
:1006D000010206D00A0DA2F56072C1F31301002ACF
:1006E00002DC30BC00207047440F44EAC104C10062
:1006F000E01830BC00EBC25000F035B830B50B4606
:10070000014600202022012409E021FA02F59D4241
:1007100005D303FA02F5491B04FA02F52844151E15
:10072000A2F10102F1DC30BD202A04DB203A00FAFC
:1007300002F1002070479140C2F1200320FA03F338
:10074000194390407047202A04DB203A21FA02F036
:100750000021704721FA02F3D040C2F120029140FB
:100760000843194670470029A8BF7047401C49003C
:1007700008BF20F00100704710B4B0FA80FC00FA06
:100780000CF050EA010404BF10BC704749B1CCF131
:10079000200421FA04F411FA0CF118BF01212143BD
:1007A0000843A3EB0C01CB1D4FEA00614FEA102078
:1007B00042BF002010BC704700EBC350104400291A
:1007C000A4BF10BC7047401C490008BF20F00100C6
:1007D00010BC704710B5141E73F1000408DA401CF9
:1007E00041F1000192185B411A4301D120F0010050
:1007F00010BD2DE9F04D92469B4611B1B1FA81F240
:1008000002E0B0FA80F220329046FFF78DFF0446F6
:100810000F4640EA0A0041EA0B0153465A46084394
:1008200013D0114653EA010019D0C8F140025046D6
:10083000FFF789FF05460E46504659464246FFF7E8
:1008400073FF084305D0012004E020463946BDE887
:10085000F08D0020054346EAE0762C4337430A98A2
:100860006305E40AA0EB08000022FD0A44EA4754AD
:100870000A3002D500200146E9E701051019694157
:10088000DDE9084500196941BDE8F04DA2E72DE911
:10089000FE4F804681EA0300C00F0C46009021F015
:1008A000004123F00045B8EB0200A94105D24046C3
:1008B000214690461C460B46024623F0004010435A
:1008C00047D0270DC7F30A00C3F30A510290401A1C
:1008D000019040286BDAC3F3130040F4801B0098AA
:1008E000924620B10023D2EB030A63EB0B0B019875
:1008F0005946C0F140025046FFF716FF06460D4626
:1009000050465946019A00F00DF910EB080061417C
:10091000002487EA115284EAE7731A4340D0009A10
:1009200062B3019A012A4FEA075215DC001B61EB02
:1009300002014FF0004202EA0752CDE90042001CDA
:1009400041F5801132462B46FFF753FF03B0BDE857
:10095000F08F40462146F9E7001B61EB0201001CC5
:1009600041F5801300185B412018A2F5001747EBF2
:10097000030140EAD570B6196D4111E06D084FEAE8
:10098000360645EAC0754FEA0752001B61EB0201CB
:10099000001C41F5801149084FEA3000001951410F
:1009A00032462B4603B0BDE8F04FFFF713BF009867
:1009B000012240000023D0EB020263EBE0730098B9
:1009C00021464FEAE074B8EB000061EB0401E9E76F
:1009D00083F000435BE781F0004158E72DE9F041E7
:1009E000054621F000400C46284309D0C4F30A50C4
:1009F00040F23341884205DD28462146BDE8F081BA
:100A00002846FBE740F2FE31884210DC0CDB4FEA5F
:100A1000043040EA155050EA053105D0104804F082
:100A2000004101430020E9E700200146E6E7A0F28B
:100A300033404642C6F1400228462146FFF774FE85
:100A400007468846284621463246FFF77CFE434645
:100A50003A46FFF7BFFE3246BDE8F041FFF764BEFD
:100A60000000F03FC1F30A52C1F3130140F2FF331B
:100A700041F480119A4202DA00200146704740F2A8
:100A800033439A42A2F2334202DC5242FFF75BBE8A
:100A9000FFF74ABE30B5041E71F1000404DB4FF0CD
:100AA0000044404264EB0101141E73F1000405DBB5
:100AB0001C464FF00043524263EB04038B4208BFD5
:100AC000824230BD30B5041E71F1000404DB4FF0EA
:100AD0000044404264EB0101141E73F1000405DB85
:100AE0001C464FF00043524263EB0403994208BF97
:100AF000904230BD1CB50948009009480190054658
:100B0000009C06E0E06840F0010394E80700984785
:100B10001034AC42F6D3FFF7EDFA0000548200081F
:100B200074820008202A06DBCB17203A41FA02F033
:100B300043EAE07306E041FA02F3D040C2F120023A
:100B40009140084319467047002808BF704710B508
:100B50004EF2100141F6401CCEF20001C0F2010C31
:100B60004FF0000E05220423C1F804C0C1F808E0CC
:100B70000A6000BF0C68E403FCD501380B60F3D1B8
:100B8000BDE81040704700004EF2100100EBC000BD
:100B9000CEF20001C0004860002088600520086097
:100BA0000868C003FCD504200860704780B50120A8
:100BB00000F046F8012818BF80BD40F23800C2F2AC
:100BC0000000407830B940F60000C4F20000012176
:100BD00000F05CFF0120BDE8804000F02BB8000071
:100BE00010B5202000F02CF8012818BF10BD40F6E9
:100BF0006864C2F200042088C0B200F0F9FB2088CB
:100C000001302080208896280FD340F23800C2F2AD
:100C10000000022101710020208040F20040C4F257
:100C20000100016821F0200101602020BDE8104092
:100C3000AFF3008040F21441C4F201010860704734
:100C400040F20041C4F201010A68496902400840CB
:100C500018BF0120002A18BF012210407047000071
:100C60008179002940F20041C4F201011FD00268DD
:100C70000B6893430B604B6893434B60037943EAE3
:100C8000010CDCF800301A43CCF8002002688B68B5
:100C900093438B60CB689343CB60407910280ED18F
:100CA000886810438860C8681043C860704702793C
:100CB000006811430A6822EA000008607047084390
:100CC000016811430160704740F20040C4F2010026
:100CD000016841F001010160016841F0100101600B
:100CE000016841F4807101607047000040F20040EB
:100CF000C4F20100016821F001010160016821F0E6
:100D000010010160016821F48071016070470000EA
:100D100010B50C2240F2080E02EA810201F0FC013B
:100D2000C4F2010E4FF00F0C51F80E400CFA02F312
:100D300024EA030341F80E3051F80E309040184376
:100D400041F80E0010BD0000CA7802F00F0CD30667
:100D500044BF8B784CEA030C2DE9F04709880B0659
:100D600025D082465AF8145B00F1100E00264FF091
:100D700001094FF00F08002706E000BF1C60013793
:100D8000082F06F1040611D009FA07F40C42F6D038
:100D900008FA06F325EA03030CFA06F51D43282A90
:100DA0005346EBD0482AEAD17346E7E70560B1F530
:100DB000807F38BFBDE8F087436800F1100E00F176
:100DC000140A082500264FF001094FF00F0805E02E
:100DD00027600135102D06F1040610D009FA05F739
:100DE0000F42F6D008FA06F4A3430CFA06F42343A4
:100DF000282A5446ECD0482AEBD17446E8E74360F1
:100E0000BDE8F0878068084018BF012070470000E7
:100E10001023002A08BF1423C15070472DE9F04366
:100E20008BB0082001214FF0010900F0BBFC042029
:100E3000012100F0B7FC1020012100F0B3FC0120DB
:100E4000012100F0AFFC4FF48040012100F0AAFC2A
:100E50000420012100F09AFC012040F60004C4F6B1
:100E60000300C4F201040AAF0A9020463946FFF796
:100E70006BFF4FF480500DF11408ADF81800404698
:100E8000CDF814908DF81A90FFF7EAFE40F2063084
:100E9000C0F2031004AE0490304600F03DFC40F672
:100EA0000F6040F60005CDF81E001320C4F20005C7
:100EB000CDF822000DF11E01284600F005FE28465F
:100EC000012100F0DBFD28460121012200F0F4FDA4
:100ED0004FF4A06000F050FC40F21E40C0F204103D
:100EE0000490304600F018FC40F20020C1F60300E8
:100EF0000A9020463946FFF727FF40F20040C4F62B
:100F000003000A9020463946FFF71EFF4FF4612088
:100F1000009000204FF4402104F54055ADF80C003E
:100F2000CDE901016946284600F046FE284640F218
:100F30002551012200F028FE4FF4A06000F01CFCB7
:100F400040F22510C0F201100490304600F0E4FB9E
:100F50002846012100F00EFE42F20000C1F203001B
:100F600004F500650A9028463946FFF7EDFE20207B
:100F7000C4F603000A9004F580603946FFF7E4FEEA
:100F800001200521FFF7C4FE202005904FF44060AA
:100F9000ADF8180040468DF81A90FFF761FE40F258
:100FA0001760C0F206100490304600F0B5FB4FF613
:100FB0000040CFF6FF70215821F02001215000F0B1
:100FC0002DFB28464FF400510122FFF721FF0BB003
:100FD000BDE8F08310B582B00820012100F0E2FBEB
:100FE000C02040F60044C1F20340C4F20104019065
:100FF00001A92046FFF7A8FE204680210122FFF725
:1010000007FF204640210122FFF702FF02B010BD7A
:10101000F0B581B040F60044C4F2010420468021BE
:1010200001228025FFF7F4FE0520FFF7ADFD002625
:10103000002700BF204640210122FFF7E9FE0520DE
:10104000FFF7A2FD20468021FFF7DCFE25FA06F11E
:10105000012808BF0F43204640210022FFF7D8FE99
:101060000520FFF791FD0136082EE3D1F8B201B05B
:10107000F0BD0000F0B581B040F600450446002602
:10108000C4F20105802700BF27FA06F000EA040237
:1010900028468021FFF7BCFE0520FFF775FD284696
:1010A00040210122FFF7B4FE0520FFF76DFD284621
:1010B00040210022FFF7ACFE0520FFF765FD013659
:1010C000082EE1D101B0F0BD2DE9F04140F6004419
:1010D000C4F20104164688460746204680210122B4
:1010E0001D46FFF795FE0520FFF74EFD20464021E7
:1010F0000122FFF78DFE0520FFF746FD20468021E7
:101100000022FFF785FE0520FFF73EFD2046402127
:101110000022FFF77DFE0520FFF736FD7F00F8B2C5
:10112000FFF7A8FF204680210122FFF771FE05206E
:10113000FFF72AFD204640210122FFF769FE052026
:10114000FFF722FD20468021FFF75CFE204640216C
:101150000022FFF75DFE0520FFF716FD4046FFF772
:1011600089FF204680210122FFF752FE0520FFF76C
:101170000BFD204640210122FFF74AFE0520FFF724
:1011800003FD20468021FFF73DFE2046402100223E
:10119000FFF73EFE0520FFF7F7FC204680210122E5
:1011A000FFF736FE0520FFF7EFFC20464021012225
:1011B000FFF72EFE0520FFF7E7FC204680210022E6
:1011C000FFF726FE0520FFF7DFFC20464021002226
:1011D000FFF71EFE0520FFF7D7FC781CC0B2FFF713
:1011E00049FF204680210122FFF712FE0520FFF76C
:1011F000CBFC204640210122FFF70AFE0520FFF725
:10120000C3FC20468021FFF7FDFD2046402100223F
:10121000FFF7FEFD0520FFF7B7FC1CE0FFF7F8FE27
:1012200005F8010BFAB220468021FFF7F1FD0520F9
:10123000FFF7AAFC204640210122FFF7E9FD052027
:10124000FFF7A2FC204640210022FFF7E1FD052028
:10125000FFF79AFC013EF0B201283746DED008B114
:101260000027DBE7204680210022FFF7D1FD052083
:10127000FFF78AFC204640210122FFF7C9FD052027
:10128000FFF782FC204680210122FFF7C1FD0520E7
:10129000FFF77AFC0020BDE8F08100002DE9F04165
:1012A00040F60044C4F2010415460F4606462046A7
:1012B000802101229846FFF7ABFD0520FFF764FC73
:1012C000204640210122FFF7A3FD0520FFF75CFC2B
:1012D000204680210022FFF79BFD0520FFF754FCEC
:1012E000204640210022FFF793FD0520FFF74CFC2C
:1012F0007000C0B2FFF7BEFE204680210122FFF73A
:1013000087FD0520FFF740FC204640210122FFF722
:101310007FFD0520FFF738FC20468021FFF772FD96
:10132000204640210022FFF773FD0520FFF72CFC2B
:101330003846FFF79FFE204680210122FFF768FD17
:101340000520FFF721FC204640210122FFF760FD28
:101350000520FFF719FC20468021FFF753FD2046AA
:1013600040210022FFF754FD0520FFF70DFC1DB3BF
:10137000A8F1010616F8010FFFF77CFE2046802138
:101380000122FFF745FD0520FFF7FEFB2046402127
:101390000122FFF73DFD0520FFF7F6FB20468021E7
:1013A000FFF730FD204640210022FFF731FD0520E8
:1013B000FFF7EAFB013DDDD1204680210022FFF747
:1013C00027FD0520FFF7E0FB204640210122FFF723
:1013D0001FFD0520FFF7D8FB204680210122FFF7E3
:1013E00017FD0520FFF7D0FB0020BDE8F0810000CD
:1013F0002DE9F04F83B00DF10608064668203B2129
:1014000006224346FFF760FE40F6506BBDF806002B
:10141000C2F2000BBBF8001000BAC1EB1040BDF8DF
:101420000810BBF8022009BAC2EB1145BDF80A103A
:10143000BBF8042009BA00B2C2EB114AFFF7E6F884
:1014400040F20009C3F6207900224B46FEF7C5FFA3
:10145000FFF738F940F2400106EB4606C2F2000100
:1014600041F8260028B201EB8604FFF7CFF80022EE
:101470004B46FEF7B2FFFFF725F960600FFA8AF0DE
:10148000FFF7C4F800224B46FEF7A7FFFFF71AF953
:10149000A0606820432106224346FFF715FEBDF8F1
:1014A0000600BBF8001000BAC1EB1040BDF80810F0
:1014B000BBF8022009BAC2EB1147BDF80A10BBF80D
:1014C000042009BA00B2C2EB1145FFF79FF80022D1
:1014D0004B46FEF782FFFFF7F5F840F24871C2F283
:1014E000000141F8260038B201EB8604FFF78EF8C0
:1014F00000224B46FEF771FFFFF7E4F8606028B268
:10150000FFF784F800224B46FEF767FFFFF7DAF893
:10151000A06003B0BDE8F08FB0B540F20044C4F263
:10152000010404F540604FF4005100220025FFF74C
:101530006FFCFFF7DBFB40F23800C2F200004570A1
:10154000216841F02001216001210171B0BD00003E
:1015500070B540F23805C2F20005687941F2000426
:101560000128C4F2010422D0032818D0022834D163
:101570000B2600BF20464FF400510122FFF748FC24
:101580003220FFF7E1FA20464FF400510022FFF726
:101590003FFC3220FFF7D8FA013EEBD13AE020467B
:1015A0004FF400510022BDE87040FFF731BC062621
:1015B00020464FF400510122FFF72AFC6420FFF778
:1015C000C3FA20464FF400510022FFF721FC6420AB
:1015D000FFF7BAFA013EEBD11CE020464FF4005170
:1015E0000022FFF715FCC820FFF7AEFA20464FF4A3
:1015F00000510122FFF70CFC4FF4FA70FFF7A4FA38
:1016000020464FF400510022FFF702FC4FF4967081
:10161000FFF79AFA0320687170BD000070B58AB0B8
:10162000FFF7D8FC002001908DF803000DF10303B3
:10163000682075210122FFF747FD9DF80300682807
:1016400067D103F07FF808B10AB070BD782003F0CD
:10165000B9FF782002F0CEFF642003F047FF01F0CD
:1016600041FBAC2001F052FC40F2731001F0E2F9B2
:10167000642001F0A3FB07A804A903F04BFB072893
:1016800038D103A803F03CF8DDE90706099CFEF712
:10169000AFFF039D01462846FEF72FFEFEF7C7FF6A
:1016A00007903046FEF7A4FF01462846FEF725FEC8
:1016B000FEF7BDFF08902046FEF79AFF0146284638
:1016C000FEF71BFEFEF7B3FF099007A801F0AEFB83
:1016D0000DF10A0002F0FAFF04ABBDF80A000ECBD0
:1016E0004143049102FB00F15843069004A8059180
:1016F00001F004FB002003F013FE01A801F096FBAB
:10170000042003F05DFD4FF4FA7003F079FE0AB097
:1017100070BD00F0ADFA000010B5C17800294EF29E
:101720000011CEF200011AD04EF60C52CEF2000299
:101730001268072323EA12220F23C2F1040C23FAB2
:1017400002F24378847890F800E003FA0CF3224028
:101750001A43120101EB0E0383F8002300E08031ED
:101760000078012300F01F0203FA02F2C0F34210D6
:1017700041F8202010BD000040F080604EF60C5172
:1017800040F0FD70CEF2000108607047002941F280
:101790001C01C4F202010A680CBF22EA00001043D7
:1017A00008607047002941F21801C4F202010A687A
:1017B0000CBF22EA000010430860704710B541F2E8
:1017C0000404C4F20204226802F00C02082A41F266
:1017D0000022C0F27A0212D12368D4F800C0C3F309
:1017E000834E5FEACC330EF1020C02D523689B03D3
:1017F00003D540F60012C0F23D020CFB02F202607B
:10180000226846F25053C2F30312C0F600039A5CFA
:101810000168D14041602268C2F302229A5C21FA39
:1018200002F282602268C2F3C2229A5C46F24C53F2
:10183000D140C1602268C0F60003C2F381329A5CD5
:10184000B1FBF2F1016110BD82B041F20400C4F2BB
:10185000020050F8041C002241F0010140F8041C71
:101860000168CFF6FF021140016050F8041C4FF6EA
:10187000FF72CFF6F662114040F8041C50F8041CC9
:1018800021F4802140F8041C016821F4FE0101606C
:101890004FF41F01416000210191009150F8041C98
:1018A00041F4803140F8041C50F8041C01F400316C
:1018B0000091019901310191009919B90199B1F58E
:1018C000A06FF1D150F8041C890354BF00210121FD
:1018D00000910099012936D142F20001C4F20201BF
:1018E0000A6842F010020A600A6822F007020A60E1
:1018F0000A6842F002020A60016801600168016042
:10190000016841F480610160016821F47C1101608B
:10191000016841F4E811016050F8041C41F0807145
:1019200040F8041C50F8041C8901FBD5016821F023
:1019300003010160016841F002010160016801F0EA
:101940000C010829FAD14EF60850CEF200004FF0F3
:101950000061016002B0704780B5FFF75FFA40F2A6
:101960003800C2F200004FF44031C0F803100221E9
:10197000018080BD70B540F60004C4F2000420462A
:10198000012100F08DF8012818BF70BD04F58030EA
:101990000121FFF737FA40F20406C2F200060546BD
:1019A0003078002D08BFA8421BD0012D08BFA842E7
:1019B00054D143F2CE00C2F200000188013101800F
:1019C000008805284AD343F2CC00C2F20000018807
:1019D000C9087C2949D943F2CE01C2F20001032291
:1019E00030E043F2CC00C2F20000018801310180F6
:1019F000008840F6C411884230D340F23801C2F268
:101A000000010878042202284A7010D8C20002237C
:101A1000D2B2C0F2010323FA02F246F24053C0F6FA
:101A2000000353F820000A704A7104F029FDFFF703
:101A30008FFD43F2CC0143F2CE00C2F20001C2F2AC
:101A40000000002240F23803C2F200035A70002264
:101A500002800A802046002100F018F8204601216B
:101A60003570BDE8704000F00DB80188052943F2DB
:101A7000CE01C2F20001EAD30222E3E7C9430182A8
:101A800070470000C94301827047000002880029A6
:101A900018BF012122F001021144018070470000AB
:101AA000028A80890A4000EA010018BF012200284A
:101AB00018BF012010407047002A82890CBF22EA1B
:101AC000010111438181704740F6FF33B0F800C037
:101AD000C4F2000398420FDCB0F1804F1ED040F2F8
:101AE0000043C4F20003984218D040F60003C4F249
:101AF0000003984212D016E040F60043C4F20003FF
:101B000098420BD043F20043C4F20103984205D03F
:101B100042F60043C4F20103984204D14B882CF0F2
:101B2000700243EA020C41F2004240F48063C4F2C6
:101B30000002934204D0CA882CF4407342EA030C9A
:101B4000A0F800C08A888285A0F18042A2F5963272
:101B50000B884FEAB222072A038507D8012303FA2C
:101B600002F212F0E50F1CBF097A01860121818281
:101B7000704700008289002918BF012122F4005219
:101B800042EA413181817047C1F3421301F01F0CD9
:101B90001421022B08BF1021012B4FF0010308BFB5
:101BA0000C21002A03FA0CF243580CBF23EA02026C
:101BB0001A4342507047000070B586B00446008A50
:101BC0000D46C98820F4405008432082A0894EF673
:101BD000F3110840A9882A896B89084310431843E8
:101BE000A081A08AA98920F44070084301AEA08298
:101BF0003046FFF7E3FD43F6000106F10800C4F2AA
:101C000001018C4208BF06F10C0000681922B4F9EA
:101C10000C1050432A680123B1F1FF3FC8BF0223D3
:101C200002FA03F1B0FBF1F048F21F51C5F2EB11DB
:101C3000A0FB01235A096FF0630302FB0300B4F910
:101C40000C300326B3F1FF3FC8BF042600FA06F0AC
:101C500000F13200A0FB01014FF00700C8BF0F20C8
:101C600000EA511040EA0210208106B070BD000069
:101C70004EF60C50BFF34F8FCEF2000001680422E5
:101C800001F4E061C0F2FA5211430160BFF34F8FDB
:101C900000BFFDE700F0FC00042808BF072108464C
:101CA0007047000080B50C2003F0EAFD00280FBF4C
:101CB000002045F67D11C0F6000101601CBF012126
:101CC000017280BDB0B541F25971CDF2B711A0FBE0
:101CD000011248F21F51C5F2EB11A0FB011345F6AA
:101CE00029415D09C0F28F21A5FB01144FF0640C5E
:101CF000510B04FB0CF2C2EB531205FB1C0340F228
:101D0000931CB0EB0C0516A418BF01250FF2100EA2
:101D1000604518BF7446204603F032FF2846B0BD28
:101D20005741524E494E473A206D6F64656C20769C
:101D3000657273696F6E2025642E25642E256420DC
:101D4000646F73656E2774206D61746368206E6EB6
:101D50006F6D2076657273696F6E210D0A00000049
:101D60004D6F64656C2076657273696F6E3A2025DD
:101D7000642E25642E25640D0A0000002DE9F04F25
:101D800087B0814601200DF11808002B069018BF7E
:101D9000984600294FF0000000F0208346F22860AA
:101DA000C0F6000093460F4602F1080584300FF29A
:101DB00080660090CDF80C800595CDE901293C6A3C
:101DC000206838B12068A1680069002920610C46AC
:101DD000F8D12DE0206958BB0020294611F80C2BC2
:101DE0001AB101300828F9D10820082807D147F294
:101DF0007F50C0F6000004F043FB002503E000EB39
:101E000040000BEB8005287A411CE068297203F042
:101E1000A3FE81076A6820F0030118BF081D9042E5
:101E200098BF10466860012025616872059D00BF5B
:101E3000386A68B1816859B10169002900F0E08110
:101E4000497A012940F0DC8180680028F4D100BF84
:101E5000B968384688474F4507D04846016819B1E8
:101E6000B8420846FAD100E00760386910B3002094
:101E7000294600BF11F80C2B1AB101300828F9D1FE
:101E80000820082800F0AE8200EB40000BEB800039
:101E90003969027A08604968013202728A0721F0C2
:101EA000030218BF111D426801234372914298BF7B
:101EB00011464160D8F800B03C6A0BF101004FF0C8
:101EC000000AC8F8000034B1E06803F045FEA468D9
:101ED0008244002CF8D17C6A4FF000083CB100BF6E
:101EE000E06803F039FEA4688044002CF8D138691A
:101EF000D7F82890002814BF406800200490387F4D
:101F00000B2813D1009A0FF2F840594603F038FE1F
:101F1000386B46F20861007DC0F6000101EBC0019C
:101F20000FF2E84003F02CFE0DE000BF46F22861FE
:101F300000EB4000C0F6000101EB80020FF2B04060
:101F4000594603F01DFE78690FF2DC4560B1007A56
:101F500046F2C851C0F6000101EBC0010FF2B440D7
:101F600003F00EFE04E000BF0FF2B04003F008FEE5
:101F7000282004F07FFA002406E000BF284603F082
:101F8000FFFD0134032C0BD0786AC068417C8C4281
:101F9000F4D2406830F81410304603F0F1FDF0E759
:101FA0000FF2944003F0ECFDB9F1000F0AD042F2B9
:101FB0000F7081450CD80FF2A440494603F0E0FDB4
:101FC0004CE000BF0FF29C4003F0DAFD46E000BF9A
:101FD00044F24020C0F20F0081450BD244F6D350AA
:101FE000C1F26200A9FB000189090FF2684003F009
:101FF000C7FD33E04CF60022C3F69A32914516D263
:102000004DF68360C4F21B30A9FB000144F240206E
:10201000890CC0F20F0001FB109041F25972CDF211
:10202000B712A0FB0202520B0FF21C4013E044F661
:1020300083314FEA5920C0F20401A0FB0101C90914
:1020400001FB12904CF66B22C6F65F32A0FB020237
:10205000920D0FF2E83003F093FD00BF049B0FF2E6
:1020600010405146424603F08BFD7C6ADDF80C803F
:10207000002C00F0B281A068002840F0C3806068A6
:10208000002840F0BF80386ADDE901B9017EC9B19E
:10209000217EB9B1059D002029464FF0000A00BFFE
:1020A00011F80C2B1AB101300828F9D108200828A2
:1020B0004ED147F27F50C0F6000004F0E1F9002451
:1020C0004AE000BF0069206147F25E70C0F6000080
:1020D00003F056FD059D00244FF0000A0BE000BF01
:1020E00047F26E70C0F6000003F04AFD0134082C80
:1020F00005F10C050ED0A00702D1202004F0BAF99A
:1021000029780029ECD047F27170C0F6000003F086
:1021100037FDEBE747F23E70C0F6000004F0B0F97F
:102120003869059D50B10068017A00291CBF01394A
:102130000172017A002908BF80F809A0786A006856
:10214000002800F04A814769002F7FF438AE44E14F
:1021500000EB40000BEB8004002C00F0058140F206
:1021600001102081786AC06803F0F6FC810762687C
:1021700020F0030118BF081D904298BF1046796AED
:10218000606047F25E70C0F600000C6103F0F8FC7E
:1021900000240AE047F26E70C0F6000003F0F0FC85
:1021A0000134082C05F10C050ED0A00702D1202027
:1021B00004F060F929780029ECD047F27170C0F67C
:1021C000000003F0DDFCEBE747F23E70C0F60000D4
:1021D00004F056F9386A059D70B100BF01690A7AAA
:1021E000002A1CBF013A0A720A7A002A08BF81F845
:1021F00009A080680028F1D13869002893D19DE7B3
:10220000F820EBE0386ADDE901BA017E002961D0EF
:10221000217E00295ED047F27F58059DC0F6000858
:102220004FF00109206888B30020294611F80C2BD3
:102230001AB101300828F9D10820082804D14046F5
:1022400004F01EF9002003E000EB40000BEB8000DF
:102250000028206100F08880E06803F07DFC8107A1
:10226000216920F003024B6818BF101D984298BFE7
:10227000184648600020224652680130002AFBD1EF
:10228000A4680872002C81F80990CBD147F25E70E7
:10229000C0F6000003F074FC47F26E7847F27179E3
:1022A0000024C0F60008C0F6000907E0404603F02D
:1022B00067FC0134082C05F10C0557D0A00702D1AA
:1022C000202004F0D7F829780029EFD0484603F001
:1022D00057FCEEE70069059D00212061646801312B
:1022E000002CFBD1027A114401720121417247F2A4
:1022F0005E70C0F6000003F043FC47F26E7847F2D0
:1023000071790024C0F60008C0F6000908E000BF9B
:10231000404603F035FC0134082C05F10C050BD0C8
:10232000A00702D1202004F0A5F829780029EFD0D9
:10233000484603F025FCEEE747F23E70C0F6000089
:1023400004F09EF8386A039E38B300210269137ABC
:10235000002B1CBF013B1372137A002B08BF517274
:1023600080680028F2D118E0F92037E047F23E708B
:10237000C0F6000004F084F8386A039E68B10021BA
:102380000269137A002B1CBF013B1372137A002BD6
:1023900008BF517280680028F2D1386950B10068D6
:1023A000017A00291CBF01390172017A002904BF9A
:1023B000002141727C6A00E0A46874B1254600BF28
:1023C00028680028F8D0416950465A463346FFF73E
:1023D000D5FC6D68002DF3D1EEE7002040B207B0C8
:1023E000BDE8F08F47F27F50C0F6000004F048F8D7
:1023F00023252D336420252D313073202D2000001E
:1024000023252D336420252D33732F00252D36737E
:10241000202D2000252D3873202D20002020202065
:1024200020202020202D200020202020200000001F
:102430002534642C00000000292020002533642E60
:1024400025303264472000002533642E2530326465
:102450004D2000002536646B2000000025376420E5
:10246000000000002020202020202020000000006C
:10247000282536642C2536642C2536642900000076
:1024800070B50446006AE26C0168CB68597CC36091
:10249000002003F09DF9D4E90812D060C96803F068
:1024A000E3FAD4E9080C226DC0689268806812686B
:1024B0000068A36D1118DCF80C2060691B68926835
:1024C000C91A116030B1007AFFF7E4FB616AC9688C
:1024D00089680860206A94F84820C068D0F804C071
:1024E000BCF8000070B1E18E238E08440138B4F8C6
:1024F00042E0C3F10103012A18BF03FB0E00B0FB49
:10250000F1F100E00021606AC06843681980BCF8FE
:10251000021071B1268F658E31440139B4F844E060
:10252000C5F10105012A18BF05FB0E11B1FBF6F13B
:1025300000E000215980E16C012A998014D1618E5C
:10254000B4F844200139514301EBD1714908E187C6
:10255000218EB4F842200139514301EBD171490871
:10256000A1870021A4F84010618E228EBCF80430AF
:10257000514301FB03F503F0EFFA05FB00F10020E6
:10258000A16270BD816909B10020704710B5016D6D
:102590000446084600F058F9606D00F055F9BDE8B2
:1025A00010400020704700002DE9F04F9DB0844698
:1025B000426A006AD268C068D2E90095D0E9007327
:1025C000DCF850609A881C971992AA885F88189244
:1025D000BCF83220DCF854101792BCF83020807C14
:1025E0001692BCF83E201B971F881592BCF83C2021
:1025F0001A971492D1F800E010286888B5F800A066
:10260000BCF83870BCF836B0BCF84480DCE916235E
:10261000BCF842403168367C21D10F901898CDE942
:102620000AE3019017980CAB0290169883E84402D5
:1026300003901598009104901498DDE91932CDE9C2
:102640000507DDE91B100025CDF840A0CDE91155A7
:10265000CDE90884CDF81CB001F002F820E00F901D
:102660001898CDE90AE3019017980CAB02901698E0
:1026700083E8440203901598009104901498DDE9D2
:102680001932CDE90507DDE91B100025CDF840A082
:10269000CDE91155CDE90884CDF81CB001F002F95F
:1026A00000201DB0BDE8F08F70B582B00546A420B3
:1026B00003F0E6F800284CD0044600F1600100F178
:1026C0007C0604202077012084F8780084F89400A8
:1026D00084F8A000204600F0B9FF20622046314671
:1026E00000F0B4FF606242F2A950C0F6000042F26E
:1026F000814142F28552231DC0F60001C0F600025E
:1027000007C3A561A86804F13006407C032822D1E4
:1027100095F91C200DF10200012100F09BFFBDF88E
:102720000600DDF80210B080316095F91E200DF131
:102730000200012103F092F9BDF80600DDF8021055
:102740006087C4F8361095F922200DF102000121AE
:1027500024E0002451E095F91C1095F91D200DF19D
:10276000020000F077FFBDF80600DDF80210B0802F
:10277000316095F91E1095F91F200DF1020003F04C
:102780006DF9BDF80600DDF802106087C4F8361058
:1027900095F9221095F923200DF1020000F044F97B
:1027A000BDF80600DDF80210A4F84600C4F8421097
:1027B000A86905F10806E06495F8240004F1500CBE
:1027C00084F848004ECE01288CE80E00E66514D14E
:1027D000208EB4F842100138484300EBD070400816
:1027E000A087608EB4F844100138484300EBD070E5
:1027F0004008E0870020A4F84000204602B070BDE9
:10280000B0B5016A04460868C068457CC86003F03A
:102810005DF902460020294602F0DAFFD4E90812E9
:10282000D060C96803F020F9606950B1616A007A2C
:10283000C96889680968FFF72DFA616AC9688968FB
:1028400008600020B0BD0000002808BF704703F0FA
:1028500015B8000070B584B0016A04460868C06805
:10286000427CC860032A16D10020012100220125E4
:1028700002F0AEFF616AADF80C50C860D4E90C31CB
:102880004FF0080CCA6889680225ADF80E3003AB1A
:10289000CDE9005C14E003F019F9024600200121A3
:1028A000012602F095FF616AD4E90C32C860D2E9D2
:1028B0000212ADF80A3008250DF10A03CDE90065D2
:1028C00003F00CF9D4E90801626BC0689268806873
:1028D000E36B006812681B68CE6802446069D11A15
:1028E000B268116030B1007AFFF7D4F9616AC96843
:1028F00089680860206AC06803F02EF94100206AE8
:102900002269C068516003F027F9616A0546C96809
:10291000084603F021F900FB05F10020A16204B094
:1029200070BD0000816909B10020704710B5416B8E
:1029300004460846FFF788FFA06BFFF785FFBDE858
:1029400010400020704700002DE9F04385B0064696
:10295000006AD6E90F12736BC06817880C88D0F82C
:102960000080D3F8009003F0F7F8716A3269C96803
:10297000B66BD1E90053497C03EB410131F8023CCD
:10298000116832680E68CDE9022582B24046494698
:10299000CDE90074049601F09BF8002005B0BDE875
:1029A000F0830000F0B581B00446882002F068FF93
:1029B000B0B3082200F144010277012200F1600661
:1029C00000F17C0780F85C2080F8782080F8842073
:1029D000054600F03BFE28622846314600F036FEF0
:1029E000686242F64910C0F6000042F6550142F610
:1029F00025122B1DC0F60001C0F6000207C3A06817
:102A00002F6103F063F8014604F1080729638ECFB4
:102A100005F1340C28468CE88E00AC6101B0F0BDA5
:102A2000002001B0F0BD00000180012142808180C2
:102A30007047000070B586B004464CF60220C0F620
:102A4000E3100DF10205CDF80200682004212A46AA
:102A500002F030FE14F040014FF0A3006FF03F0190
:102A60008DF8020008BF6FF05C016FF037026FF065
:102A70003D0308BF6FF05C0208BF6FF05C038DF888
:102A8000031014F4C0716FF03B018DF804208DF831
:102A9000053008BF6FF05C016FF033026FF039034F
:102AA00008BF6FF05C0208BF6FF05C038DF8061082
:102AB0004AF2A3318DF80720ADF809108DF80B000C
:102AC00040F6A7200A212A468DF8083002F0F2FDD0
:102AD0002020A60708BF6FF027008DF8020040F6FF
:102AE000B62001212A4602F0E5FDA0060CD4C7203D
:102AF0008DF8140048F6B000CCF2C35004904AF6AA
:102B0000B820CAF6AA200BE05D208DF8140049F623
:102B1000B400C3F20D5004904AF6B820C8F6B35082
:102B2000039003AA4FF49760092102F0C3FD14F447
:102B3000C07F25D06FF04D016FF0740214F48070E7
:102B400008BF6FF04F0108BF6FF07F026FF04903BD
:102B50006FF0640508BF6FF04B03002808BF6FF0EB
:102B60006F058DF802108DF803200DF1020240F67A
:102B7000A22004218DF804308DF8055002F09AFD52
:102B8000E00708D1D8208DF802000DF102024FF4C1
:102B90000B60012150E0F8208DF802000DF10202D7
:102BA0004FF40B60012102F085FD0720FA2100F0AF
:102BB00035FA3F208DF80C0003AA4FF4A4700121D0
:102BC00002F078FD00208DF80C0003AA40F24F10AF
:102BD000012102F06FFD4FF4A050ADF80C0003AAE4
:102BE0004FF4EF70022102F065FD4FF4C840ADF8DC
:102BF0000C0003AA4FF4ED70022102F05BFD48F6D1
:102C00000060C9F2F900039003AA4FF4AE700421EA
:102C100002F050FD4FF40060ADF80C0003AA4FF431
:102C2000AD70022102F046FD4FF40070ADF80C00CB
:102C300003AA4FF4AC70022102F03CFD6FF02600B5
:102C4000002E58BF6FF027008DF802000DF1020230
:102C500040F23D70012102F02DFD600752BF4FF0A0
:102C60008B304CF2C020CCF2C460039003AA40F633
:102C70009820042102F01EFD01F090FFE00652BFF3
:102C80004FF0A33042F62000C3F63000039003AAB1
:102C900040F69E20042102F00DFD01F07FFF40F67A
:102CA000606144F00800C2F200016506088001F08E
:102CB00075FF062000EAE57114F4C07F40F66660F7
:102CC00018BF0631C2F2000014F0140F017002D0D8
:102CD00001781031017016B10178043101700020C3
:102CE00006B070BD46F2D471C0F6000140F6F63071
:102CF0004FF48062C82301F0A5BD000010B584B078
:102D000004460DF1020001F0E1FC40F65C60C2F205
:102D100000000088BDF802C000F00302430754F829
:102D200022204FF00C0348BF524203EA50038106B1
:102D3000E358C0F3811148BF5B4254F82110C0052D
:102D400048BF49424FEACC3080FB02C480FB03E21B
:102D500080FB01014FEA9C73800F43EA840C4FEA29
:102D60009E7340EA810EA00D8DF80400A00B8DF833
:102D70000500A0098DF80600900D8DF80800900B55
:102D80008DF8090090098DF80A00880D8DF80C0067
:102D9000880B8DF80D00880943EA82038DF80E0038
:102DA00001AA4FF425700C218DF807C08DF80B3067
:102DB0008DF80FE002F07EFC04B010BD10B586B0B7
:102DC0004AF6BB71CDF6DF7105914FF2AA11CDF62F
:102DD000DF7104914FF2FE21CCF2AB41C828039180
:102DE00017D8C8210446B1FBF0F0002101388DF856
:102DF00004108DF8050001AA40F21620022102F00D
:102E000059FC30B903AA40F6C1200C2102F052FC53
:102E100018B14FF0FF3006B010BD40F66460C2F24A
:102E200000000480002006B010BD0000F0B581B0A5
:102E300040F65C61C2F200010E880C2306F003012B
:102E40004EF2093450F8211003EA5603C0F2CA24A6
:102E5000720748BF4942C758C6F3811381FB041269
:102E600050F82350F0054FEA91704FEA925148BF55
:102E70006D428DF80010910B40EA82008DF8011030
:102E800091098DF802108DF803006A464FF47470B2
:102E9000042102F00FFCE0B9B00648BF7F42A7FB57
:102EA0000401FA1702FB0411800F8A0D40EA810029
:102EB0008DF800208A0B89098DF801208DF8021009
:102EC0008DF803006A464FF47570042102F0F2FB9E
:102ED00018B14FF0FF3001B0F0BD85FB0401800F49
:102EE00040EA8100010E8DF80010010C8DF80110F0
:102EF000010A8DF802108DF803006A464FF47670CF
:102F0000042102F0D7FB01B0F0BD0000B0B582B0E3
:102F1000054646F23B51C0F60001C5F3C10300F07F
:102F20000300CC5C0A5C8DF8054046F238548DF8FD
:102F30000420C5F38112C0F60004895C205C8DF882
:102F400006108DF80000E05CA15C8DF801008DF8A2
:102F5000021001AA40F22640032102F0ABFBA0BB05
:102F60006A4640F22A40032102F0A4FB68BB7620A7
:102F70008DF8060045F23660ADF8040044F2266094
:102F8000ADF80000662069078DF8020021D4A8067C
:102F90002DD4E8050BD59DF806009DF8021040F0F1
:102FA00001008DF8060041F001008DF8020001AA31
:102FB0004FF48860032102F07DFB30B96A4640F28D
:102FC0003140032102F076FB00B34FF0FF3002B036
:102FD000B0BD9DF804009DF8001040F001008DF890
:102FE000040041F001008DF80000A806D1D59DF83D
:102FF00005009DF8011040F001008DF8050041F03A
:1030000001008DF80100E805C5D4D0E740F65C600A
:10301000C2F200000580002002B0B0BDF0B583B060
:103020000446B1F5C86F4FF0FF3055D814F00702D1
:1030300052D00846FDF7E5FA0021C4F24831FDF709
:103040008EF905460DF1070001F026FB9DF80700FB
:1030500002384FEA7002072A4FF0FF303CD80026B2
:10306000C4F240664FF08D41DFE802F01504360AE5
:10307000363636100026C4F2C0564FF08C410AE0B6
:103080000026C4F240564FF08B4104E00026C4F203
:10309000C0464FF08A412846FDF72FF907462846DB
:1030A0003146FDF72AF9FDF7C2FA06463846FDF724
:1030B000BEFA010A8DF808108DF80900300A02A93D
:1030C0008D1C8DF80A00E0078DF80B6006D1A00773
:1030D00013D4600720D4002003B0F0BD02AA4FF43F
:1030E000EA70022102F0E6FA28BB4FF49270022146
:1030F0002A4602F0DFFAF0B9E9E702AA4FF4EC70D1
:10310000022102F0D7FAB0B94FF4947002212A4696
:1031100002F0D0FA78B9DCE702AA4FF4EE7002218F
:1031200002F0C8FA38B94FF4967002212A4602F02C
:10313000C1FA0028CFD04FF0FF3003B0F0BD00003F
:10314000B0B584B0016A04460868C068457CC860B0
:1031500002F0BCFC02460020294602F039FBD4E90B
:103160000821C860D06802F0F7FCD4E90812ADF875
:103170000E00C968D568CA6889684FF0080C012438
:103180000DF10E032846CDE9004C02F0A7FC00200B
:1031900004B0B0BD0020704770B50446682002F04E
:1031A0006FFB024600284FF000001FD01A23137750
:1031B00043F2951343F24116C0F60003C0F6000631
:1031C00002F13001C2E90136012382F864001046A1
:1031D00002F14C0582F84830164600F037FA3062AA
:1031E0003046294600F032FA70623046002818BF97
:1031F000846170BD43F60001C4F201010A88120621
:10320000FCD58880704700002DE9F04784B040F27B
:103210000807C2F200070C4605460120D7E9001353
:10322000ADF804001878497D164601AB0222FEF77E
:1032300035F8002840F0C180C820FDF785FC00204B
:10324000D7E900128DF804001078497C01AB012207
:10325000FEF724F8002840F0B080D7E9001001AB59
:10326000007849790122FEF719F8002840F0A5807E
:10327000D7E9001001AB0078497D0122FEF70EF876
:10328000002840F09A80D7E9001001AB0078897ED1
:103290000122FEF703F8002840F08F80D7E90010E4
:1032A00001AB007809790122FDF7F8FF002840F012
:1032B00084800C20D7E900128DF804001078097979
:1032C00001AB0122FDF7EAFF002876D10F20FDF7C0
:1032D0003BFCB86AD7E90012407A89788DF804007F
:1032E000107801AB0122FDF7D9FF002865D1B86A3B
:1032F000D7E90012007A49788DF80400107801AB04
:103300000122FDF7CBFF002857D1B86AD7E9001298
:10331000807A002E18BF40F0E0008DF8040010788D
:10332000897901AB0122FDF7B9FF002845D126B10B
:10333000B86AC07A60F01F0000E01820D7E90012D8
:103340008DF804001078C97901AB0122FDF7A6FFC2
:1033500098BB16B1C820FDF7F7FB4020D7E9001253
:103360008DF804001078097901AB0122FDF796FF72
:1033700018BB7820D7E900128DF80400107849793D
:1033800001AB0122FDF78AFFB8B93220FDF7DCFB63
:103390000020D7E900128DF804001078497901ABBC
:1033A0000122FDF77BFF40B9D7E9001001AB00789F
:1033B000097B0222FDF788FE20B14FF0FF3004B0F8
:1033C000BDE8F087BDF804004AF6AB2100BA000C56
:1033D0004843C0F3C7480021B8F1000FC5E9001108
:1033E000A960C4E90011A16041D0C00C00260DF114
:1033F00004095FFA80FAD7E900100C220078497BB3
:103400004B46FDF761FE0028D7D1BDF80400BDF89A
:10341000061090FA80FCBDF80820D4E9003091FA3B
:1034200081FEA16812BA03EB2C4300EB2E4001EBA6
:103430002241C4E90030BDF80A00A160BDF80C10BB
:1034400090FA80FCD5E90030BDF80E2091FA81FE9B
:10345000A96803EB2C4300EB2E40013612BAC5E9F4
:103460000030F0B201EB22415045A960C3D3D5E949
:103470000007AE68C117090441EA10410004832225
:103480000023FCF780FE42460023FCF77CFE286008
:10349000F817000440EA1741380483220023FCF7A0
:1034A00072FE42460023FCF76EFE6860F0170004CF
:1034B00040EA1641300483220023FCF764FE4246B2
:1034C0000023FCF760FEA860D4E90006A568C117D8
:1034D000490141EAD061400142460023FCF753FE16
:1034E0002060F017400140EAD66170014246002397
:1034F000FCF749FE6060E817400140EAD5616801C9
:1035000042460023FCF73FFE01464FF4803200297B
:10351000C4BF0022CFF6FF7211440020A16004B0A6
:10352000BDE8F087B0B50446006AC068457C02F08B
:10353000CDFA02460020294602F04AF9D4E90812E1
:10354000D060C96802F090FA0020B0BDB0B5016A41
:10355000C46BC9680D68084602F0FEFA02462846A8
:103560002146FCF741FE0020B0BD000070B584B0DC
:103570000546782002F084F9044600284FF0000048
:103580002CD00222227743F24D5243F22553C0F64B
:103590000002C0F6000304F14001C4E90123012246
:1035A00084F87400204604F15C0684F8582000F08A
:1035B0004DF820622046314600F048F860626868A5
:1035C00004F13006417C02290AD001290DD140685E
:1035D000012103880DF10A0001220CE0002431E0F2
:1035E000406801210288438803E0406801884288DE
:1035F00083880DF10A0002F0D3F9BDF80E00DDF862
:103600000A10B0803160686801688268E1631168FF
:10361000D4F83220A163218E0392ADF80A1002F093
:1036200055FA024600200321032502F0D1F8226A50
:10363000A16BD06008260DF10A030022CDE90056E7
:1036400002F074FA204604B070BD0000024608463D
:103650004A617047018001214280818070470000EB
:103660002DE9F04F9DB09B46279B0691002B00F063
:1036700015813399DDE92E670139B1FA81F14909E4
:103680000291791E059111440491023806990B901C
:1036900007FB0BF04843269B4000189006FB0BF0FD
:1036A0004FEA400E581E0C90DDE92A20DDE9285330
:1036B000013E40423144009005FB0BF0309C2C9FB2
:1036C0000F914FEA4B0117905843099151420190D5
:1036D00000200A9603910E9014900EE00298149A1E
:1036E0000E990244279801310E9181420C9801995C
:1036F000149208440C9000F0D18036980028EDD048
:1037000034980E9900EB410010900020089000982A
:10371000079009E0089936980131089181422D9867
:10372000079901440791D9D035980028F2D02D98F7
:10373000089E2B997043401A0599049B2F9A091AE9
:10374000181A91FBF2F190FBF2F3299821EAE17546
:103750008342A8BF0346329814991A9350F8210067
:10376000359912900798714302FB05001191069953
:10377000039A002301FB00262898139568430D90B7
:1037800020E000BF129A2C9FC2F1200129FA02F01A
:1037900008FA01F10843B2F1200158BF48FA01F0DC
:1037A0001199159B279A19445143109A00F30F0061
:1037B00022F811003598169E0133309C139D8342E8
:1037C0003E44A7D02A9903FB07F0401A0F992E9A7E
:1037D000091A91FBF2FC289915938C45A8BF8C46D9
:1037E00074B10E99319A6156149C329B52F8242080
:1037F00053F82430914001229A4001EB620908E01D
:103800003299149A51F82210012202FA01F14FEA7A
:1038100061091A994FEAE9788D421696B2DA0A9947
:10382000099A081A2E9990FBF1F020EAE07301FB47
:1038300003600B99199302FB00120D980C99184420
:103840000BFB001728460AE018991C9A01300A441D
:103850001A991B9F88421799199B0F4492D0634570
:10386000CDE91B72F0DA1D4605E000BF0135724458
:1038700065455F44E8D0BBF1000FF7D0394692466A
:103880005B4600BF3AF9026F11F9014F744319EB1F
:10389000040948EBE478013BF4D1E7E71DB0BDE84B
:1038A000F08F00002DE9F04F9AB01F46249B06913F
:1038B000002B00F00A810546DDE92F90DDE92BC6DB
:1038C0000138B0FA80F040090290701E0590104453
:1038D0000490681E069A23990A9006FB07F050434D
:1038E0001690481E0DF19C0A0B909AE80205ACF167
:1038F000010009901044DDE9255E0E9048420390D6
:10390000C8F10000009005FB07F02D9B159000FB0F
:103910000EF00CFB07FC019000204FF000080D900A
:103920000DE000BF02980D998044249801310D915B
:1039300081420B98019908440B9000F0C68033989F
:103940000028EFD031980D99CDF8408008440F90B1
:1039500000200890009807900AE000BF089933986B
:103960000131089181422A98079901440791D9D0E1
:1039700032980028F2D02A98DDF820E028990EFB32
:1039800000F0401A05992C9A049D091A91FBF2F156
:10399000281A90FBF2F5269821EAE17432998542C3
:1039A000A8BF054607980EFB01F102FB0400119128
:1039B0000699039A189501FB002525980026604377
:1039C0000C9012941BE000BFDDF8BC90DDF8408045
:1039D0001199139E59F82800249A31444AFA00F0AC
:1039E00051430F9A00F3070050543298DDF8A4A019
:1039F000149D01362D9B129C86425544AED02799CA
:103A000006FB0AF0A0EB010E0E992B9AA1EB0E011A
:103A100091FBF2F1259A13969142A8BF11466BB122
:103A20000D9A59F828009A562E9B53F828309A4040
:103A30000123834002EB630A07E000BF59F8282006
:103A4000012303FA02F24FEA620A189A149594428B
:103A5000BADA099AA2EB0E002B9A90FBF2F020EA58
:103A6000E07B02FB0B500A9ACDF85CB007FB002606
:103A70000C980B9A584407FB002E20460BE000BF21
:103A8000169A199E01301644189ADDF85CB09042DF
:103A9000159A964498D08B451996F1DAF14605E0CF
:103AA0000BF1010B66448B45B944E9D0002FF7D0E8
:103AB0004D46B0463B4600BF18F9012F15F9014F9E
:103AC000013B04FB02AAF7D1EAE71AB0BDE8F08F88
:103AD0002DE9F04F89B0DDF85490DDE913B8964632
:103AE0009F08009300F0D5804FEA9E0202920122C7
:103AF00002FA0BF2521005920EF003020792021F17
:103B00000192CDF81880CDF80CE01EE04AFA0BF2D5
:103B100002F3070209F8042B43FA0BF202F307023F
:103B200009F8032C48FA0BF2089F02F3070209F880
:103B3000022C4CFA0BF2013FDDF8508002F3070231
:103B40003B0409F8012C00F0A480B8F1000F08979D
:103B50001AD0069D129E95F9002095F90130059C1A
:103B6000B24095F9027002EB040A03FA06F2131947
:103B700007FA06F202EB040895F903200435B24077
:103B800002EB040C069504E0DDF814A0D446D04600
:103B90005346079DBEF1040F04D20246002D5FD1AB
:103BA000B4E700BFDDE901BE1039CDF8109000BFC9
:103BB0001BF9044F11F9106F9BF9022091F9019044
:103BC00006FB04AA91F9046091F9057009FB04331E
:103BD00006FB048807FB04CC91F902409BF90150D5
:103BE00091F9086004FB02A49BF9039091F90A7013
:103BF00006FB054491F9036007FB094A91F9094066
:103C000006FB023391F90B6004FB053391F9064082
:103C100006FB093391F9076004FB028406FB02C22C
:103C200091F90C7091F90D6007FB054706FB052221
:103C300091F90E6091F90F5006FB097805FB092CEC
:103C4000AEF1010E5FEA0E42B2D10BF10402DDE9E2
:103C500003E9DDF84CB0079D1031002D3FF456AF5D
:103C60000439013A11F9046F12F9014F91F9017009
:103C700006FB04AA07FB043391F9027091F9036073
:103C800007FB048806FB04CC013D2F04EAD1043174
:103C90003CE7009A12F0030333D0012202FA0BF240
:103CA0004FEA620CCEF100060AE000BF42FA0BF2C6
:103CB00002F30702013B09F8012B1A04714420D0DA
:103CC000B8F1000F08D018F9012B129CA2406244F1
:103CD000BEF1000F06D1E9E74FF000086246BEF1E1
:103CE000000FE3D04FF0FF354C19471997F90170D9
:103CF00094F90140013504FB072277190137F3D10C
:103D0000D4E709B0BDE8F08F002908BF7047002252
:103D1000B0F90030B3F1FF3FD8BF0280013900F1A4
:103D20000200F5D170470000002908BF704700224B
:103D300090F90030B3F1FF3FD8BF0270013900F1B4
:103D40000100F5D17047000070B589B1431E4FF6F0
:103D5000FF6C0D4613F9014F0FFA8CF6A642C8BF4F
:103D60003446013DA446F5D1A4F108031BB201E09D
:103D70006FF484734FF0000C89B14FF0010E0446CC
:103D80000D4601E0013D0AD014F9016B9E42F9DDB8
:103D9000F61A86F305060EFA06F6B444F2E7002991
:103DA00008BF70BD4FF4801696FBFCFC03F10D0EAE
:103DB0000CE000BFAEEB040484F305044CFA04F4F9
:103DC00004F30704013902F8014B05D010F9014B47
:103DD000A342EFDB0024F5E770BD0000FDF7BCFD5A
:103DE00051A002F04DFB41F2CC00C2F200004FF4B2
:103DF000005101F085FD40F29310FDF763FF41F2A1
:103E00003008C2F20008404601F08AFC47F2DC307C
:103E1000C0F60000FFF7AAFB054646F29450D8F81A
:103E20000C40C0F60000FEF73FFC2946A047D8F83A
:103E300018400646FDF736FF3146A047064646F2D3
:103E40006450D8F80C40C0F60000FEF72DFC314657
:103E5000A047D8F818400646FDF724FF3146A04792
:103E6000064647F2CC30D8F80C40C0F60000FFF709
:103E700093F93146A047064646F2B870D8F80C4090
:103E8000C0F60000FEF78EFD3146A047064647F219
:103E90000C40D8F80C40C0F6000001F0B3FD3146EC
:103EA000A047064647F2E430D8F80C40C0F60000C0
:103EB00001F048FD3146A04702464046294600F041
:103EC00059F840F2380741F2000940F20504C2F205
:103ED0000007C4F20109C2F2000415A6002500BFC4
:103EE0007878022804D1397911B9FDF715FB02E081
:103EF000002818BF7D7038790228F1D148464FF468
:103F000000510122FCF784FF00F08AF9404600F0DE
:103F1000EDFA00F0C9F901462070304601F030FE9C
:103F20003D71FCF7D1FEDBE748656C6C6F2100004A
:103F300025640000024608464A61704780B581B199
:103F4000026812B9002204E05A69536A1B68002B08
:103F5000FAD112B1086A516A08600160002040B2CB
:103F600080BD47F29860C0F6000002F089FAF9209F
:103F700040B280BD2DE9F04381B081460120B9F106
:103F8000000F009018BF002907D147F61900C0F6AE
:103F9000000002F075FAFF2002E11546C9E900159C
:103FA0003AB900E04169486A00680028FAD1C9F8C6
:103FB00004107DA000210422032301F0E1FD47F25B
:103FC0004E60C0F6000002F05BFA7DA002F058FAE5
:103FD00041F2C808C2F20008D8F8001081A001F030
:103FE000CFFD88A002F04CFA47F2DD60C0F6000079
:103FF00002F046FA47F2EB56C0F60006304602F0F1
:104000003FFA4A4652F8200B6B460146FDF7B6FED2
:10401000304602F035FA287F03280DD046F2286199
:1040200000EB4000C0F6000101EB800147F29E402A
:10403000C0F6000001F0A4FD47F24070C0F6000099
:1040400001F09EFD47F2627609F118040025C0F6E2
:104050000006002754F80C2F30463946154401F06D
:104060008FFD0137082FF5D147F21150C0F600003F
:10407000294601F085FDA80725F003002F4618BF4B
:10408000071DB80727F003003B4618BF031D41F288
:10409000C400C2F200000268D8F8001013448B423A
:1040A00043D241F2C001C2F20001096803608E18D8
:1040B000002E6DD041F22C04C2F200042068394673
:1040C000384420603046FCF7A8F8216847F2EE40FB
:1040D000C0F6000001F054FD0020002109EB0003B0
:1040E0005A6A2AB10C307718602811441F62F5D142
:1040F000D9F8000010B3026A014632B1D2E9037365
:104100001B683B609268002AF8D14A6A3AB100BF46
:10411000D2E903731B683B609268002AF8D10968F2
:1041200059B10A6A002AE9D1EFE739B347F275704D
:10413000C0F6000001F024FD26E0C0B947F61900E2
:10414000C0F6000002F09CF9D9F800200020002100
:1041500032B1936A1268C01841F10001002AF7D108
:10416000C9F8800000201BE000680028ECD04169FD
:104170000029F9D0426AD2684A60F5E747F2C47074
:10418000C0F6000001F0FCFC0026002E7FF492AF88
:1041900047F23F50C0F60000294601F0F1FCF9203B
:1041A00040B201B0BDE8F0834E4E6F4D207665728F
:1041B00073696F6E2025642E25642E25640D0A0018
:1041C0004461746120666F726D61743A2043686166
:1041D0006E6E656C206C6173742028485743290DFE
:1041E00000000000537461746963206D656D6F7227
:1041F000792073697A652073657420746F3A20257D
:10420000640D0A00537461727420636F6D70696C81
:10421000696E67206D6F64656C2E2E2E0D00000098
:104220002DE9F04381B040F66A60C2F20000871EBB
:1042300040F24870C2F2000040F20008A0F1080409
:104240009625C4F2400800BF54F80C6F54F8040CD3
:10425000FCF725FA00224346FCF7BFF802F022F9EA
:10426000FCF7FEF981463046FCF719FA0022434676
:10427000FCF7B3F802F016F9FCF7F2F907F8030FB0
:10428000606807F8019CFCF70AFA00224346FCF735
:10429000A4F802F007F9FCF7E3F9013D7870D3D1F7
:1042A00001B0BDE8F08300002DE9F04741F2B80706
:1042B0004CF2000840F2000980260024C2F20007F8
:1042C000C4F25F08C4F259090FF2640A002500BF66
:1042D0003857FCF79BF900224346FCF7F0F8002220
:1042E0004B46FCF77AF802460B465046214601F051
:1042F00047FC385776B2B042C8BF0646A8BF25462D
:104300000134062CE4D170B26628D8BF4FF0FF35D7
:10431000681CC0B2062804D80BA151F8200001F097
:104320002FFC0A2002F0A6F868B2BDE8F08700BFB3
:104330004F75747075745B25645D203D20252E32A9
:10434000662025250D0A00005D74000882740008AF
:104350007D740008857400088A7400089074000851
:104360007074000800284FF0000218BF002901D126
:1043700010467047F0B581B04C6AE4B12268E2B3F0
:1043800025466468002CFBD141F2C403C2F200034D
:1043900041F2C8021F68C2F20002126807F1080663
:1043A00096420AD241F2C002C2F2000212681E60B6
:1043B000D419BCB920E000241FE00E4607463AB1EC
:1043C00047F27570C0F60000114601F0D9FB05E018
:1043D00047F2C470C0F6000001F0D2FB002438465A
:1043E00031464CB141F22C02C2F20002136808338C
:1043F00013600022626022606C60026A002A47D06B
:104400001368002B45D000BF15469268002AFBD1E7
:1044100041F2C403C2F2000341F2C8021F68C2F2B3
:104420000002126807F11C0696421AD241F2C0023D
:10443000C2F2000212681E603A4442B341F22C03F9
:10444000C2F200031F681C371F6000235360936093
:10445000D36013615361936113606B69AA60536108
:1044600017E00E4607463AB147F27570C0F60000F5
:10447000114601F085FB05E047F2C470C0F600006C
:1044800001F07EFB002238463146002AD6D1AA60D0
:104490000022496A22601160024601B0BDE8F04086
:1044A0001046704713460A46022100F001B800008A
:1044B00082B0B0B582B00692079378B10D4604463B
:1044C00006A8012901900ADB0198011D01910168EC
:1044D0002046FFF747FF013DF6D100E000242046CB
:1044E00002B0BDE8B04002B070470000002100F00B
:1044F00001B800002DE9F04381B0F8B10668054627
:10450000E6B1884601244FF0000900BF71683046CB
:1045100088477169074611B10A6808469047C6F88E
:104520002C90AFB9EA691AB1284631469047E0B9F4
:1045300046450BD036684EB10134E7E747F619001F
:10454000C0F6000001F09CFFFF271DE000271BE0E4
:10455000307F46F2286100EB4000C0F6000101EB1D
:1045600080020BA021463B460CE00746307F46F216
:10457000286100EB4000C0F6000101EB80030FA0B2
:104580003946224601F0FCFA78B201B0BDE8F0836A
:104590004572726F723A20232564202573206C6166
:1045A0007965722072657475726E206572726F72B1
:1045B00020636F64653A25640D0A00004572726FCE
:1045C000723A2043616C6C6261636B207265747532
:1045D000726E206572726F7220636F64652025644D
:1045E00020617420232564202573206C6179657215
:1045F0000D0A0000F0B581B040F20804C2F20004D8
:1046000094F8241011B1002001B0F0BDA27A002A64
:104610003ED000F0FE063240257C901B217D18BF65
:104620004FF0FF30002E227408BF002916D0617CA5
:1046300031BB0121D4E900328DF802101278597C87
:104640000DF10203074610460122FCF727FE014642
:104650003846A9B99DF80210617411E007460020A0
:10466000D4E900128DF803001078497C0DF10303A2
:104670000122FCF713FE10B99DF803006074384660
:1046800046B1064600F08AFA0146304611B125745B
:104690004FF0FF3001B0F0BD40F20801C2F200015E
:1046A0004A7A032A84BF4FF0FF30704740F202433A
:1046B000D200C1F2080323FA02F20270C97C11B1E0
:1046C00001784900017000207047000040F20801A5
:1046D000C2F200014A7A032A84BF4FF0FF307047CC
:1046E00005A3C97C33F81220028011B10188490862
:1046F00001800020704700BF00400020001000082B
:1047000040F20801C2F200010A7A032A84BF4FF086
:10471000FF3070470021C4F20331DFE802F00F02DE
:10472000060B0021C4F2832108E043F23331C4F2C6
:10473000032103E043F23331C4F28311016000200E
:104740007047000070B582B040F20804C2F2000465
:104750008020D4E900128DF800001078497D6B4666
:104760000122FCF79BFD18B14FF0FF3002B070BD85
:104770006420FCF7E9F90025D4E900108DF8005019
:104780000078497D6B4601220126FCF787FD002851
:104790004FF0FF3001D002B070BD4FF6FF71E181E4
:1047A000FF2121746182A0601820D4E90012C4E9BD
:1047B0000555E5612584C4F8235084F827508DF809
:1047C0000600107889790DF106030122267384F81A
:1047D0002260FCF763FD0028C6D19DF80600A17A8F
:1047E000C00800292072BFD0607A00218DF8071020
:1047F00070B1D4E900100DF107030078C9790122E6
:10480000FCF74CFD0028AFD19DF80700C00860728E
:104810002A2000F033FE0028A6D1322000F066FEE8
:104820000028A1D10020FFF7E5FE00289CD1002040
:1048300000F000FD002897D1002000F0C3FE00200A
:1048400002B070BD2DE9F04F87B0074600294FF048
:10485000FF3000F0A78040F20804C2F200040E46C8
:1048600094F82510002940F09D809246002F019376
:1048700000F07F804FF000090DF10A0B1FFA89F05C
:10488000A7EB0008B8F1100FA8BF4FF010083518BB
:104890004FF0FF3006B3A17AF1B160685FFA89F199
:1048A0001FFA88F243891144994299FA89F14FEA33
:1048B0001141ADF81A1003D94FF0FF3070B166E026
:1048C00021680078C97E02220DF11A03FCF7E6FC8C
:1048D00000283ED04FF0FF30002858D1A07AB8B160
:1048E00060685FFA89F11FFA88F24389114499429E
:1048F00099FA89F14FEA1141ADF81A1008D82168E8
:104900000078C97E02220DF11A03FCF7C7FC80B1C2
:104910004FF0FF30D8BB1FFA88F228465946FBF704
:1049200087FC002841D1C1441FFA89F0B842A5D3C1
:104930001FE0D4E900105FFA88F20078097E5B4638
:10494000FCF7C2FB002818BF4FF0FF300028E2D070
:104950001DE0D4E900105FFA88F20078097E2B464A
:10496000FCF79CFC002818BF4FF0FF300028B5D0A2
:104970000DE09AFA9AF0D4E90012ADF81A00107816
:10498000497F0DF11A030222FCF788FC20B14FF099
:10499000FF3007B0BDE8F08F012084F825000198B2
:1049A000E084002007B0BDE8F08F6FF0010007B091
:1049B000BDE8F08F282884BF4FF0FF30704770B5F6
:1049C00082B040F20804C2F20004002844D094F8F7
:1049D000231001291FD00546A07C94F82210322212
:1049E000002808BF30228DF8032029B19DF803006C
:1049F00040F080008DF80300D4E900100DF10303AE
:104A00000078C97D01220126FCF748FC00282846D1
:104A100008BF84F82360202101288DF8001050D1B0
:104A2000A07A002100288DF8011000F09780E07A2C
:104A3000062106288DF8041000F09080D4E90010BB
:104A400001AB007889780122FCF728FC002840F0AF
:104A500085809DF8040080E094F82300E8B1A07CF4
:104A600094F82210002818BF012040008DF80200A1
:104A700029B19DF8020040F080008DF80200D4E9D1
:104A800000100DF102030078C97D0122FCF706FC3D
:104A9000002804BF002084F823004FF4E060D4E92C
:104AA0000012ADF800001078497D6B460222FCF739
:104AB000F5FB002806BF002020754FF0FF3002B044
:104AC00070BD052818D8A07A012100288DF80110A2
:104AD00044D0E07A062106288DF805103ED0D4E9AE
:104AE00000100DF10503007889780122FCF7D6FB50
:104AF000A0BB9DF8050030E0142817D8A07A022149
:104B00008DF8011050B3E07A052105288DF80610C4
:104B100024D0D4E900100DF1060300788978012231
:104B2000FCF7BCFBD0B99DF8060016E0A07A032183
:104B30008DF8011090B1E07A042104288DF8071057
:104B40000CD0D4E900100DF1070300788978012218
:104B5000FCF7A4FB10B99DF80700E0729DF8010076
:104B6000D4E90012800107308DF801001078497DEA
:104B70006B460222FCF792FB18B14FF0FF3002B0F7
:104B800070BD0820A0720020207301202075002035
:104B9000FFF730FD002002B070BD000010B582B0FC
:104BA00040F20804C2F20004A07A00B30020D4E965
:104BB00000128DF807001078497C0DF107030122DF
:104BC000FCF76CFB98B9D4E900100DF107030078ED
:104BD00049790122FCF762FB48B9D4E900100DF1D4
:104BE0000703007809790122FCF758FB18B14FF050
:104BF000FF3002B010BD94F82400002840D00C20F3
:104C0000D4E900128DF80700107809790DF1070337
:104C10000122FCF743FB0028E9D13220FBF794FF87
:104C2000A07A0DF10703C0076FF01F0008BF6FF0F7
:104C30003F00D4E900128DF80700107809790122AD
:104C4000FCF72CFB0028D2D1607C0DF10703002873
:104C500018BF01204000D4E900128DF80700107839
:104C6000497C0122FCF71AFB0028C0D10020D4E9BE
:104C700000128DF80700107849790DF107033FE025
:104C80000420D4E900128DF80700107809790DF19D
:104C900007030122FCF702FB0028A8D1A07AA17C1F
:104CA000C0074FF0600008BF4020002918BF402017
:104CB000D4E900128DF80700107809790DF1070387
:104CC0000122FCF7EBFA002891D13220FBF73CFFE0
:104CD000607C0DF10703002818BF0120D4E9001201
:104CE0008DF807001078497C0122FCF7D7FA0028DC
:104CF0007FF47DAFD4E9001004F110030078497906
:104D00000122FCF7CBFA00287FF471AF002002B03B
:104D100010BD00002DE9F04F97B040F20806C2F236
:104D2000000696F824800D46B8F1000F074602D021
:104D3000002000F0F5FA307A032806D846F2C05178
:104D4000C0F6000131F8100000E000200890707AF1
:104D500003280CD840F20241C000C1F20801F27CE5
:104D600021FA00F0002A18BF012290400490F07A46
:104D700006281BD8411EB1FA81F14909079100F0BC
:104D80007F000621C14001F0010106910E21C140C2
:104D900001F0010105911E21C14001F001010391C3
:104DA0003E2121FA00F000F0010906E00020079002
:104DB000CDE9050003904FF00009F0890024099027
:104DC000B07A0A90307C0B90384629460022FEF7D4
:104DD0001BFA18B10134012CF6D00224022C01D1A7
:104DE000002493E0029700240FAE0CAF3046394602
:104DF0000122FEF709FA18B10134012CF6D0022481
:104E0000022C03D140F2080600247DE040F20800A5
:104E1000C2F20000406816AB00780D210422CDE9F3
:104E20000098FCF751F9002800F0DA8000264FF0D6
:104E3000000812ACCBF680764FF0000A39460CE041
:104E4000012000FA08F04AEA000A08F10108394690
:104E5000B8F1030F04F1040435D055F8280051F8D7
:104E60002810401A48BF4042FBF7C2FB4FF05E518A
:104E7000FBF743FAD4F80090834648460021FBF73D
:104E8000A9FB68B958464946FBF769FA3146FBF772
:104E9000DCF945F6294120F00040C3F60F610DE032
:104EA00049F69A115846C3F69961FBF785FB00282D
:104EB000C6D143F233315846C3F67371FBF76EFB2C
:104EC0000028C2D1BCE740F20800C2F200004068EE
:104ED00012AD00780D2103222B46FCF7F5F80028CF
:104EE00000F0D3804FF007085FFA88F0B0FA80F046
:104EF00040095FEA0A6108BF0230DDF8048040F231
:104F00000806DDF80090041DC2F200064FF6FF709F
:104F1000F081FF20089930744FF0FF30B06001201D
:104F2000B1F57A7F307306DAFA290AD0B1F5FA7F43
:104F300019D1082008E006D0B1F5FA6F13D1182076
:104F400002E0002000E010208DF84800D6E90010B3
:104F500012AB007889790122FCF7A0F918B99DF805
:104F60004800C0083072B07A40B30498C0B202382A
:104F70004FEA7000072821D8DFE800F00408200677
:104F80002020200A002004E0102002E0082000E099
:104F900018208DF84800707A9DF84810B0EBD10FBA
:104FA0000CD0D6E9001012AB0078C9790122FCF7C9
:104FB00075F918B99DF84800C0087072B07A0028D9
:104FC00000F0EB80079808B10120D3E0069808B103
:104FD0000220CFE00598002800F0C3800320C9E03C
:104FE0009DF858009DF85B301C249DF8591004EA88
:104FF000D000C3F3011210449DF85AC08DF855003B
:1050000004EAD100C3F3810108448DF8560004EA94
:10501000DC0003F0030145F61D2408440DF1550999
:1050200012AEC3F684744FF000088DF8570008E004
:105030000020CBF8000008F10108B8F1030F3FF49D
:10504000F5AE19F8080006EB880B0028F0D0A0F1A7
:10505000010A5FEA0A600FD041F27B40C3F6AE60FE
:105060002146FBF74AF9AAF1010A5FEA0A61F7D182
:105070004FF0000A04E000BF41F27B40C3F6AE608F
:10508000CBF8000009F808A0D5E79DF848009DF886
:1050900049109DF84A2000F01F008DF8480001F0EB
:1050A0001F004EF2543B029F8DF8490002F01F0092
:1050B0000026C3F6857B4FF000088DF84A0007E014
:1050C0000120B04048EA00080136032E3FF40CAF3F
:1050D0000FA957F8260051F82610401A48BF404241
:1050E000FBF786FA4FF05E51FBF707F9A95D04461E
:1050F00031B3A1F101090021C4F2C8115FEA0960CE
:105100000CD000BF08465946FBF7F7F8A9F1010992
:105110005FEA09610146F5D14FF00009204605F824
:105120000690FBF71CF90021CBF68071FBF78DF898
:1051300045F6294120F00040C3F60F610CE000BFA6
:1051400000212046C4F22011FBF736FA0028B7D11F
:1051500000212046C4F2D221FBF720FA0028B3D167
:10516000AEE7039808B1042004E0B9F1000F0CBFCA
:10517000062005208DF84800F07A9DF848108842F6
:105180000BD0D6E9001012AB007889780122FCF729
:1051900085F810B99DF84800F072099800F0A6F95A
:1051A0000A9800F00FFA0B98FFF724FAB8F1000FF5
:1051B00002D0012000F0B4F8204617B0BDE8F08F0F
:1051C00010B582B040F20804C2F20004A17A29B3FB
:1051D00002384FEA700107294FF0FF3027D8DFE887
:1051E00001F0040826062626260A002004E01020E6
:1051F00002E0082000E018208DF80700607A9DF892
:105200000710B0EBD10F11D0D4E900100DF1070356
:105210000078C9790122FCF741F818B14FF0FF304E
:1052200002B010BD9DF80700C0086072002002B0F7
:1052300010BD0000B0B582B040F20805C2F2000512
:10524000A97C814202D1002002B0B0BD0446D5E95C
:1052500000100DF10703007809790122FBF734FFF4
:1052600084B3002844D19DF80700D5E9001200F06E
:10527000DF008DF80700107809790DF1070301228E
:10528000FCF70CF8A0BB0320FBF75EFC95F822109E
:1052900095F823206FF07D00002908BF02208DF8CB
:1052A00007001AB140F030008DF80700D5E9001072
:1052B0000DF107030078C97D0122FBF7EFFFB8B9B4
:1052C000AC74C0E7A0B99DF80700A97A00F0DF0030
:1052D00001F0010140EA4110D5E900128DF8070004
:1052E000107809790DF107030122FBF7D7FF18B1F8
:1052F0004FF0FF3002B0B0BD0320FBF725FC95F85E
:10530000220095F82310024600281CBF01226FF0EE
:105310007F00D20100298DF80720C3D1C6E7000025
:10532000B0B582B040F20804C2F2000494F8241030
:1053300081425DD0D0B394F8250000285BD009B934
:10534000A07A78B10020D4E900128DF80500107819
:10535000497C0DF105030122FBF7A0FF10B99DF870
:105360000500607400200025FFF764FFE08C00F06A
:10537000BDF860688DF80450007801AB232101224C
:105380000125FBF78BFF0220D4E900128DF80600FF
:105390001078497C0DF10603012284F82450FBF7B4
:1053A0007DFF18BB9DF8060060741FE009B9A07A64
:1053B00078B10020D4E900128DF807001078497CFC
:1053C0000DF107030122FBF769FF10B99DF80700F3
:1053D0006074207C61688DF80400087801AB23219B
:1053E0000122FBF75BFF002084F82400FFF7D6FBC7
:1053F000002002B0B0BD4FF0FF3002B0B0BD0000E1
:1054000010B582B040F20804C2F20004A17A49B398
:105410000146B0F57A7F4FF0FF3006DAFA290CD05A
:10542000B1F5FA7F27D108200AE0B1F57A7F06D0DE
:10543000B1F5FA6F1FD1182002E0002000E0102023
:105440008DF80700207A9DF80710B0EBD10F11D02E
:10545000D4E900100DF10703007889790122FBF7E8
:105460001DFF18B14FF0FF3002B010BD9DF80700CE
:10547000C0082072002002B010BD000010B582B03C
:1054800040F20804C2F20004A17A21B3BC2801D37F
:1054900001200FE0622801D302200BE02A2801D36B
:1054A000032007E0142801D3042003E00A2834BFB6
:1054B000062005208DF80700E07A9DF80710884245
:1054C00010D0D4E900100DF107030078897801228B
:1054D000FBF7E4FE18B14FF0FF3002B010BD9DF8AD
:1054E0000700E072002002B010BD0000B0B582B02D
:1054F00040F20804C2F20004A17A00294FF0FF3103
:105500005DD094F82420002A59D1217D59B1411E43
:1055100089B2272902D8FFF74DFA4FE0054600204F
:10552000FFF748FA28464FF47A75B0F57A7F28BF1E
:105530002846042898BF0420B5FBF0F0D4E90012F7
:1055400001388DF80600107849780DF10603012224
:10555000FBF7A4FE10B14FF0FF3130E09DF80600DC
:10556000A27A411CB5FBF1F1E1813AB3012801D8DF
:1055700001200FE0042801D802200BE00A2801D8FE
:10558000032007E0182801D8042003E031288CBF4D
:10559000062005208DF80700E07A9DF80710884264
:1055A0000CD0D4E900100DF10703007889780122AE
:1055B000FBF774FE10B99DF80700E0720021084661
:1055C00002B0B0BDB0B582B0044610F0700F01D08B
:1055D000012003E0002C0CBF4020002040F2080511
:1055E000C2F200058DF80600D5E900100DF10603A2
:1055F0000078497D0122FBF751FE38BB9DF806007B
:10560000A10600F0BF0028734FF0040020EA141038
:1056100058BF0230E1068DF8060005D49DF806005B
:1056200040F001008DF80600200705D49DF8060023
:1056300040F038008DF80600D5E900100DF10603A2
:105640000078897D0122FBF729FE28B10020A8728D
:105650004FF0FF3002B0B0BD14F0F70F20D095F836
:105660002300E8B1A87C95F82210002818BF01207B
:1056700040008DF8070029B19DF8070040F0800038
:105680008DF80700D5E900100DF107030078C97DFA
:105690000122FBF703FE002804BF002085F8230049
:1056A000002028753220AC72FBF74EFA002002B0C1
:1056B000B0BD00000346002A4FF0FF3008BF70471E
:1056C00070B582B040F20805C2F20005AE7AAEB104
:1056D00068685EBADBB244890B44A342ADF8066049
:1056E0000AD80E4629680078C97E14460DF10603D3
:1056F0000222FBF7D3FD28B14FF0FF3002B0BDE826
:1057000070407047D5E90010F2B20078097E234658
:10571000FBF7C4FD002818BF4FF0FF30EEE7000094
:1057200010B520B188210446FAF777FD34E041F244
:10573000C400C2F2000041F2C8010268C2F20001D6
:10574000096802F188038B4208D241F2C001C2F21B
:105750000001096803608C1884B91AE031B147F27E
:105760007570C0F6000000F00BFA05E047F2C47057
:10577000C0F6000000F004FA002454B141F22C00FD
:10578000C2F2000001688831016020468821FAF7E2
:1057900044FD012084F8850043F63D70C0F600000A
:1057A00044F2653144F2A54244F2B14343F6357CFC
:1057B00004F1080EC0F60001C0F60002C0F60003B6
:1057C000C0F6000C8EE80F002046C4F818C010BDCB
:1057D0002DE9F04381B00446894620B1012C2AD13D
:1057E0004FEA820801E04FF004081420042100F081
:1057F0003BF84FEA490607463046042100F034F8EA
:1058000007EB4801084400F03BF8B8B100F114057B
:10581000456007463046042100F026F80146294439
:10582000384601EB0802C0E9021287F811903C7477
:1058300001B0BDE8F08303A000F022FE002001B01B
:10584000BDE8F0834552524F523A2074656E736F33
:10585000722074797065206E6F742073706563694F
:105860006669656400000000B0FBF1F202FB110202
:10587000891A002A18BF08447047000070470000CA
:10588000B0B50446800724F0030018BF041DA0072C
:1058900024F00300234618BF031D41F2C400C2F2E6
:1058A000000041F2C8010268C2F200010968134415
:1058B0008B4208D241F2C001C2F2000109680360C4
:1058C0008D1885B91AE031B147F27570C0F6000045
:1058D00000F056F905E047F2C470C0F6000000F091
:1058E0004FF9002555B141F22C00C2F200000168C9
:1058F0002144016028462146FAF78FFC2846B0BDB6
:1059000041F2C002C2F20002106041F2C800C2F2CD
:105910000000016041F2C400C2F2000000210160F9
:1059200070470000B0B5D0E90812C46BC968D068F0
:105930000D6800F011F9024620462946FAF754FC9A
:105940000020B0BD10B50446FDF710FE002808BFCA
:1059500010BD45F6251142F60102C0F60001C0F661
:105960000002C0E90112016A0322C968846102775A
:1059700004460846FFF782FF204610BDB0B54068D8
:10598000857C046800F0E8F8102D0146204603D11C
:10599000FEF7BAF90020B0BDFEF7C6F90020B0BD91
:1059A0000180428083807047B0B5016A0446086870
:1059B000C068457CC86000F089F80246002029468E
:1059C000FFF706FFD4E90812D060C96800F04CF870
:1059D000606A0722C068816800200A60B0BD0000CC
:1059E000B0B50446416A006AC0680568C86800F03E
:1059F000B3F8616AC9680A6801462846FEF7A4F947
:105A00000020B0BD70B504466820FFF739FF00B331
:105A10001222027745F6E11245F6A913C0F60002FC
:105A2000C0F6000300F13001C0E90123012200F1BA
:105A30004C0680F8482080F864200546FDF706FEF5
:105A4000286228463146FDF701FE01462846696274
:105A500000E00020002818BF846170BD0180012192
:105A600042808180704700000A7C037C9A421CBF00
:105A70000020704770B54B7C457CAB421CBF0020BA
:105A800070BD012A06D14A6802EB430232F8022CAB
:105A9000940000E004248D7C82688B688574054640
:105AA00010460E4619462246FAF79EFBE868F16852
:105AB0002246FAF799FB707C71686874727C68689A
:105AC0005200FAF791FB284670BD00004168407C07
:105AD00001EB400030F8020C704700002DE9F04166
